{
    "_format": "hh-sol-artifact-1",
    "contractName": "NFTMarket",
    "sourceName": "contracts/NFTMarketplace.sol",
    "abi": [
        {
            "inputs": [],
            "stateMutability": "nonpayable",
            "type": "constructor"
        },
        {
            "anonymous": false,
            "inputs": [
                {
                    "indexed": true,
                    "internalType": "uint256",
                    "name": "itemId",
                    "type": "uint256"
                },
                {
                    "indexed": true,
                    "internalType": "address",
                    "name": "nftContract",
                    "type": "address"
                },
                {
                    "indexed": true,
                    "internalType": "uint256",
                    "name": "tokenId",
                    "type": "uint256"
                },
                {
                    "indexed": false,
                    "internalType": "address",
                    "name": "seller",
                    "type": "address"
                },
                {
                    "indexed": false,
                    "internalType": "address",
                    "name": "owner",
                    "type": "address"
                },
                {
                    "indexed": false,
                    "internalType": "string",
                    "name": "category",
                    "type": "string"
                },
                {
                    "indexed": false,
                    "internalType": "uint256",
                    "name": "price",
                    "type": "uint256"
                },
                {
                    "indexed": false,
                    "internalType": "bool",
                    "name": "isSold",
                    "type": "bool"
                }
            ],
            "name": "MarketItemCreated",
            "type": "event"
        },
        {
            "inputs": [
                {
                    "internalType": "address",
                    "name": "nftContract",
                    "type": "address"
                },
                {
                    "internalType": "uint256",
                    "name": "tokenId",
                    "type": "uint256"
                },
                {
                    "internalType": "uint256",
                    "name": "price",
                    "type": "uint256"
                },
                {
                    "internalType": "string",
                    "name": "category",
                    "type": "string"
                }
            ],
            "name": "createMarketItem",
            "outputs": [],
            "stateMutability": "payable",
            "type": "function"
        },
        {
            "inputs": [
                {
                    "internalType": "address",
                    "name": "nftContract",
                    "type": "address"
                },
                {
                    "internalType": "uint256",
                    "name": "itemId",
                    "type": "uint256"
                }
            ],
            "name": "createMarketSale",
            "outputs": [],
            "stateMutability": "payable",
            "type": "function"
        },
        {
            "inputs": [],
            "name": "fetchCreateNFTs",
            "outputs": [
                {
                    "components": [
                        {
                            "internalType": "uint256",
                            "name": "itemId",
                            "type": "uint256"
                        },
                        {
                            "internalType": "address",
                            "name": "nftContract",
                            "type": "address"
                        },
                        {
                            "internalType": "uint256",
                            "name": "tokenId",
                            "type": "uint256"
                        },
                        {
                            "internalType": "address payable",
                            "name": "seller",
                            "type": "address"
                        },
                        {
                            "internalType": "address payable",
                            "name": "owner",
                            "type": "address"
                        },
                        {
                            "internalType": "string",
                            "name": "category",
                            "type": "string"
                        },
                        {
                            "internalType": "uint256",
                            "name": "price",
                            "type": "uint256"
                        },
                        {
                            "internalType": "bool",
                            "name": "isSold",
                            "type": "bool"
                        }
                    ],
                    "internalType": "struct NFTMarket.MarketItem[]",
                    "name": "",
                    "type": "tuple[]"
                }
            ],
            "stateMutability": "view",
            "type": "function"
        },
        {
            "inputs": [],
            "name": "fetchPurchasedNFTs",
            "outputs": [
                {
                    "components": [
                        {
                            "internalType": "uint256",
                            "name": "itemId",
                            "type": "uint256"
                        },
                        {
                            "internalType": "address",
                            "name": "nftContract",
                            "type": "address"
                        },
                        {
                            "internalType": "uint256",
                            "name": "tokenId",
                            "type": "uint256"
                        },
                        {
                            "internalType": "address payable",
                            "name": "seller",
                            "type": "address"
                        },
                        {
                            "internalType": "address payable",
                            "name": "owner",
                            "type": "address"
                        },
                        {
                            "internalType": "string",
                            "name": "category",
                            "type": "string"
                        },
                        {
                            "internalType": "uint256",
                            "name": "price",
                            "type": "uint256"
                        },
                        {
                            "internalType": "bool",
                            "name": "isSold",
                            "type": "bool"
                        }
                    ],
                    "internalType": "struct NFTMarket.MarketItem[]",
                    "name": "",
                    "type": "tuple[]"
                }
            ],
            "stateMutability": "view",
            "type": "function"
        },
        {
            "inputs": [
                {
                    "internalType": "string",
                    "name": "category",
                    "type": "string"
                }
            ],
            "name": "getItemsByCategory",
            "outputs": [
                {
                    "components": [
                        {
                            "internalType": "uint256",
                            "name": "itemId",
                            "type": "uint256"
                        },
                        {
                            "internalType": "address",
                            "name": "nftContract",
                            "type": "address"
                        },
                        {
                            "internalType": "uint256",
                            "name": "tokenId",
                            "type": "uint256"
                        },
                        {
                            "internalType": "address payable",
                            "name": "seller",
                            "type": "address"
                        },
                        {
                            "internalType": "address payable",
                            "name": "owner",
                            "type": "address"
                        },
                        {
                            "internalType": "string",
                            "name": "category",
                            "type": "string"
                        },
                        {
                            "internalType": "uint256",
                            "name": "price",
                            "type": "uint256"
                        },
                        {
                            "internalType": "bool",
                            "name": "isSold",
                            "type": "bool"
                        }
                    ],
                    "internalType": "struct NFTMarket.MarketItem[]",
                    "name": "",
                    "type": "tuple[]"
                }
            ],
            "stateMutability": "view",
            "type": "function"
        },
        {
            "inputs": [],
            "name": "getListingPrice",
            "outputs": [
                {
                    "internalType": "uint256",
                    "name": "",
                    "type": "uint256"
                }
            ],
            "stateMutability": "view",
            "type": "function"
        },
        {
            "inputs": [],
            "name": "getMarketItems",
            "outputs": [
                {
                    "components": [
                        {
                            "internalType": "uint256",
                            "name": "itemId",
                            "type": "uint256"
                        },
                        {
                            "internalType": "address",
                            "name": "nftContract",
                            "type": "address"
                        },
                        {
                            "internalType": "uint256",
                            "name": "tokenId",
                            "type": "uint256"
                        },
                        {
                            "internalType": "address payable",
                            "name": "seller",
                            "type": "address"
                        },
                        {
                            "internalType": "address payable",
                            "name": "owner",
                            "type": "address"
                        },
                        {
                            "internalType": "string",
                            "name": "category",
                            "type": "string"
                        },
                        {
                            "internalType": "uint256",
                            "name": "price",
                            "type": "uint256"
                        },
                        {
                            "internalType": "bool",
                            "name": "isSold",
                            "type": "bool"
                        }
                    ],
                    "internalType": "struct NFTMarket.MarketItem[]",
                    "name": "",
                    "type": "tuple[]"
                }
            ],
            "stateMutability": "view",
            "type": "function"
        }
    ],
    "bytecode": "0x60806040526509184e72a00060045534801561001a57600080fd5b50600160008190555033600360006101000a81548173ffffffffffffffffffffffffffffffffffffffff021916908373ffffffffffffffffffffffffffffffffffffffff160217905550612513806100736000396000f3fe6080604052600436106100705760003560e01c806395478fbf1161004e57806395478fbf146100f6578063c23b139e14610133578063ee45a7111461014f578063ee6ba2341461016b57610070565b806312e855851461007557806329aa3a42146100a05780637cbad146146100cb575b600080fd5b34801561008157600080fd5b5061008a610196565b604051610097919061210e565b60405180910390f35b3480156100ac57600080fd5b506100b56101a0565b6040516100c2919061206c565b60405180910390f35b3480156100d757600080fd5b506100e061055f565b6040516100ed919061206c565b60405180910390f35b34801561010257600080fd5b5061011d60048036038101906101189190611c2c565b6109a2565b60405161012a919061206c565b60405180910390f35b61014d60048036038101906101489190611b70565b610ede565b005b61016960048036038101906101649190611bac565b611197565b005b34801561017757600080fd5b50610180611569565b60405161018d919061206c565b60405180910390f35b6000600454905090565b606060006101ae60016119ac565b905060006101bc60026119ac565b6101c660016119ac565b6101d09190612205565b90506000808267ffffffffffffffff811115610215577f4e487b7100000000000000000000000000000000000000000000000000000000600052604160045260246000fd5b60405190808252806020026020018201604052801561024e57816020015b61023b6119d0565b8152602001906001900390816102335790505b50905060005b8481101561055457600073ffffffffffffffffffffffffffffffffffffffff166005600060018461028591906121af565b815260200190815260200160002060040160009054906101000a900473ffffffffffffffffffffffffffffffffffffffff1673ffffffffffffffffffffffffffffffffffffffff161415610541576000600560006001846102e691906121af565b815260200190815260200160002060000154905060006005600083815260200190815260200160002090508060405180610100016040529081600082015481526020016001820160009054906101000a900473ffffffffffffffffffffffffffffffffffffffff1673ffffffffffffffffffffffffffffffffffffffff1673ffffffffffffffffffffffffffffffffffffffff168152602001600282015481526020016003820160009054906101000a900473ffffffffffffffffffffffffffffffffffffffff1673ffffffffffffffffffffffffffffffffffffffff1673ffffffffffffffffffffffffffffffffffffffff1681526020016004820160009054906101000a900473ffffffffffffffffffffffffffffffffffffffff1673ffffffffffffffffffffffffffffffffffffffff1673ffffffffffffffffffffffffffffffffffffffff168152602001600582018054610444906122d5565b80601f0160208091040260200160405190810160405280929190818152602001828054610470906122d5565b80156104bd5780601f10610492576101008083540402835291602001916104bd565b820191906000526020600020905b8154815290600101906020018083116104a057829003601f168201915b50505050508152602001600682015481526020016007820160009054906101000a900460ff161515151581525050848681518110610524577f4e487b7100000000000000000000000000000000000000000000000000000000600052603260045260246000fd5b602002602001018190525060018561053c91906121af565b945050505b808061054c90612307565b915050610254565b508094505050505090565b6060600061056d60016119ac565b905060008060005b83811015610616573373ffffffffffffffffffffffffffffffffffffffff16600560006001846105a591906121af565b815260200190815260200160002060030160009054906101000a900473ffffffffffffffffffffffffffffffffffffffff1673ffffffffffffffffffffffffffffffffffffffff1614156106035760018361060091906121af565b92505b808061060e90612307565b915050610575565b5060008267ffffffffffffffff811115610659577f4e487b7100000000000000000000000000000000000000000000000000000000600052604160045260246000fd5b60405190808252806020026020018201604052801561069257816020015b61067f6119d0565b8152602001906001900390816106775790505b50905060005b84811015610997573373ffffffffffffffffffffffffffffffffffffffff16600560006001846106c891906121af565b815260200190815260200160002060030160009054906101000a900473ffffffffffffffffffffffffffffffffffffffff1673ffffffffffffffffffffffffffffffffffffffff1614156109845760006005600060018461072991906121af565b815260200190815260200160002060000154905060006005600083815260200190815260200160002090508060405180610100016040529081600082015481526020016001820160009054906101000a900473ffffffffffffffffffffffffffffffffffffffff1673ffffffffffffffffffffffffffffffffffffffff1673ffffffffffffffffffffffffffffffffffffffff168152602001600282015481526020016003820160009054906101000a900473ffffffffffffffffffffffffffffffffffffffff1673ffffffffffffffffffffffffffffffffffffffff1673ffffffffffffffffffffffffffffffffffffffff1681526020016004820160009054906101000a900473ffffffffffffffffffffffffffffffffffffffff1673ffffffffffffffffffffffffffffffffffffffff1673ffffffffffffffffffffffffffffffffffffffff168152602001600582018054610887906122d5565b80601f01602080910402602001604051908101604052809291908181526020018280546108b3906122d5565b80156109005780601f106108d557610100808354040283529160200191610900565b820191906000526020600020905b8154815290600101906020018083116108e357829003601f168201915b50505050508152602001600682015481526020016007820160009054906101000a900460ff161515151581525050848681518110610967577f4e487b7100000000000000000000000000000000000000000000000000000000600052603260045260246000fd5b602002602001018190525060018561097f91906121af565b945050505b808061098f90612307565b915050610698565b508094505050505090565b606060006109b060016119ac565b905060008060005b83811015610ad45786866040516020016109d3929190611fa9565b60405160208183030381529060405280519060200120600560006001846109fa91906121af565b8152602001908152602001600020600501604051602001610a1b9190611fc2565b60405160208183030381529060405280519060200120148015610aac5750600073ffffffffffffffffffffffffffffffffffffffff1660056000600184610a6291906121af565b815260200190815260200160002060040160009054906101000a900473ffffffffffffffffffffffffffffffffffffffff1673ffffffffffffffffffffffffffffffffffffffff16145b15610ac157600183610abe91906121af565b92505b8080610acc90612307565b9150506109b8565b5060008267ffffffffffffffff811115610b17577f4e487b7100000000000000000000000000000000000000000000000000000000600052604160045260246000fd5b604051908082528060200260200182016040528015610b5057816020015b610b3d6119d0565b815260200190600190039081610b355790505b50905060005b84811015610ed0578787604051602001610b71929190611fa9565b6040516020818303038152906040528051906020012060056000600184610b9891906121af565b8152602001908152602001600020600501604051602001610bb99190611fc2565b60405160208183030381529060405280519060200120148015610c4a5750600073ffffffffffffffffffffffffffffffffffffffff1660056000600184610c0091906121af565b815260200190815260200160002060040160009054906101000a900473ffffffffffffffffffffffffffffffffffffffff1673ffffffffffffffffffffffffffffffffffffffff16145b15610ebd57600060056000600184610c6291906121af565b815260200190815260200160002060000154905060006005600083815260200190815260200160002090508060405180610100016040529081600082015481526020016001820160009054906101000a900473ffffffffffffffffffffffffffffffffffffffff1673ffffffffffffffffffffffffffffffffffffffff1673ffffffffffffffffffffffffffffffffffffffff168152602001600282015481526020016003820160009054906101000a900473ffffffffffffffffffffffffffffffffffffffff1673ffffffffffffffffffffffffffffffffffffffff1673ffffffffffffffffffffffffffffffffffffffff1681526020016004820160009054906101000a900473ffffffffffffffffffffffffffffffffffffffff1673ffffffffffffffffffffffffffffffffffffffff1673ffffffffffffffffffffffffffffffffffffffff168152602001600582018054610dc0906122d5565b80601f0160208091040260200160405190810160405280929190818152602001828054610dec906122d5565b8015610e395780601f10610e0e57610100808354040283529160200191610e39565b820191906000526020600020905b815481529060010190602001808311610e1c57829003601f168201915b50505050508152602001600682015481526020016007820160009054906101000a900460ff161515151581525050848681518110610ea0577f4e487b7100000000000000000000000000000000000000000000000000000000600052603260045260246000fd5b6020026020010181905250600185610eb891906121af565b945050505b8080610ec890612307565b915050610b56565b508094505050505092915050565b60026000541415610f24576040517f08c379a0000000000000000000000000000000000000000000000000000000008152600401610f1b906120ee565b60405180910390fd5b6002600081905550600060056000838152602001908152602001600020600601549050600060056000848152602001908152602001600020600201549050813414610fa4576040517f08c379a0000000000000000000000000000000000000000000000000000000008152600401610f9b9061208e565b60405180910390fd5b6005600084815260200190815260200160002060030160009054906101000a900473ffffffffffffffffffffffffffffffffffffffff1673ffffffffffffffffffffffffffffffffffffffff166108fc349081150290604051600060405180830381858888f19350505050158015611020573d6000803e3d6000fd5b508373ffffffffffffffffffffffffffffffffffffffff166323b872dd3033846040518463ffffffff1660e01b815260040161105e93929190612035565b600060405180830381600087803b15801561107857600080fd5b505af115801561108c573d6000803e3d6000fd5b5050505060016005600085815260200190815260200160002060070160006101000a81548160ff021916908315150217905550336005600085815260200190815260200160002060040160006101000a81548173ffffffffffffffffffffffffffffffffffffffff021916908373ffffffffffffffffffffffffffffffffffffffff16021790555061111e60026119ba565b600360009054906101000a900473ffffffffffffffffffffffffffffffffffffffff1673ffffffffffffffffffffffffffffffffffffffff166108fc6004549081150290604051600060405180830381858888f19350505050158015611188573d6000803e3d6000fd5b50505060016000819055505050565b600260005414156111dd576040517f08c379a00000000000000000000000000000000000000000000000000000000081526004016111d4906120ee565b60405180910390fd5b600260008190555060008311611228576040517f08c379a000000000000000000000000000000000000000000000000000000000815260040161121f906120ae565b60405180910390fd5b600454341461126c576040517f08c379a0000000000000000000000000000000000000000000000000000000008152600401611263906120ce565b60405180910390fd5b61127660016119ba565b600061128260016119ac565b90506040518061010001604052808281526020018773ffffffffffffffffffffffffffffffffffffffff1681526020018681526020013373ffffffffffffffffffffffffffffffffffffffff168152602001600073ffffffffffffffffffffffffffffffffffffffff16815260200184848080601f016020809104026020016040519081016040528093929190818152602001838380828437600081840152601f19601f82011690508083019250505050505050815260200185815260200160001515815250600560008381526020019081526020016000206000820151816000015560208201518160010160006101000a81548173ffffffffffffffffffffffffffffffffffffffff021916908373ffffffffffffffffffffffffffffffffffffffff1602179055506040820151816002015560608201518160030160006101000a81548173ffffffffffffffffffffffffffffffffffffffff021916908373ffffffffffffffffffffffffffffffffffffffff16021790555060808201518160040160006101000a81548173ffffffffffffffffffffffffffffffffffffffff021916908373ffffffffffffffffffffffffffffffffffffffff16021790555060a0820151816005019080519060200190611460929190611a59565b5060c0820151816006015560e08201518160070160006101000a81548160ff0219169083151502179055509050508573ffffffffffffffffffffffffffffffffffffffff166323b872dd3330886040518463ffffffff1660e01b81526004016114cb93929190612035565b600060405180830381600087803b1580156114e557600080fd5b505af11580156114f9573d6000803e3d6000fd5b50505050848673ffffffffffffffffffffffffffffffffffffffff16827f058ba5dd04a75d8581491c06ed3308197306a78713282c4d1bdeef5bde9ba83333600088888b600060405161155196959493929190611fd9565b60405180910390a45060016000819055505050505050565b6060600061157760016119ac565b905060008060005b83811015611620573373ffffffffffffffffffffffffffffffffffffffff16600560006001846115af91906121af565b815260200190815260200160002060040160009054906101000a900473ffffffffffffffffffffffffffffffffffffffff1673ffffffffffffffffffffffffffffffffffffffff16141561160d5760018361160a91906121af565b92505b808061161890612307565b91505061157f565b5060008267ffffffffffffffff811115611663577f4e487b7100000000000000000000000000000000000000000000000000000000600052604160045260246000fd5b60405190808252806020026020018201604052801561169c57816020015b6116896119d0565b8152602001906001900390816116815790505b50905060005b848110156119a1573373ffffffffffffffffffffffffffffffffffffffff16600560006001846116d291906121af565b815260200190815260200160002060040160009054906101000a900473ffffffffffffffffffffffffffffffffffffffff1673ffffffffffffffffffffffffffffffffffffffff16141561198e5760006005600060018461173391906121af565b815260200190815260200160002060000154905060006005600083815260200190815260200160002090508060405180610100016040529081600082015481526020016001820160009054906101000a900473ffffffffffffffffffffffffffffffffffffffff1673ffffffffffffffffffffffffffffffffffffffff1673ffffffffffffffffffffffffffffffffffffffff168152602001600282015481526020016003820160009054906101000a900473ffffffffffffffffffffffffffffffffffffffff1673ffffffffffffffffffffffffffffffffffffffff1673ffffffffffffffffffffffffffffffffffffffff1681526020016004820160009054906101000a900473ffffffffffffffffffffffffffffffffffffffff1673ffffffffffffffffffffffffffffffffffffffff1673ffffffffffffffffffffffffffffffffffffffff168152602001600582018054611891906122d5565b80601f01602080910402602001604051908101604052809291908181526020018280546118bd906122d5565b801561190a5780601f106118df5761010080835404028352916020019161190a565b820191906000526020600020905b8154815290600101906020018083116118ed57829003601f168201915b50505050508152602001600682015481526020016007820160009054906101000a900460ff161515151581525050848681518110611971577f4e487b7100000000000000000000000000000000000000000000000000000000600052603260045260246000fd5b602002602001018190525060018561198991906121af565b945050505b808061199990612307565b9150506116a2565b508094505050505090565b600081600001549050919050565b6001816000016000828254019250508190555050565b60405180610100016040528060008152602001600073ffffffffffffffffffffffffffffffffffffffff16815260200160008152602001600073ffffffffffffffffffffffffffffffffffffffff168152602001600073ffffffffffffffffffffffffffffffffffffffff16815260200160608152602001600081526020016000151581525090565b828054611a65906122d5565b90600052602060002090601f016020900481019282611a875760008555611ace565b82601f10611aa057805160ff1916838001178555611ace565b82800160010185558215611ace579182015b82811115611acd578251825591602001919060010190611ab2565b5b509050611adb9190611adf565b5090565b5b80821115611af8576000816000905550600101611ae0565b5090565b600081359050611b0b816124af565b92915050565b60008083601f840112611b2357600080fd5b8235905067ffffffffffffffff811115611b3c57600080fd5b602083019150836001820283011115611b5457600080fd5b9250929050565b600081359050611b6a816124c6565b92915050565b60008060408385031215611b8357600080fd5b6000611b9185828601611afc565b9250506020611ba285828601611b5b565b9150509250929050565b600080600080600060808688031215611bc457600080fd5b6000611bd288828901611afc565b9550506020611be388828901611b5b565b9450506040611bf488828901611b5b565b935050606086013567ffffffffffffffff811115611c1157600080fd5b611c1d88828901611b11565b92509250509295509295909350565b60008060208385031215611c3f57600080fd5b600083013567ffffffffffffffff811115611c5957600080fd5b611c6585828601611b11565b92509250509250929050565b6000611c7d8383611edb565b905092915050565b611c8e8161224b565b82525050565b611c9d81612239565b82525050565b611cac81612239565b82525050565b6000611cbd8261214e565b611cc78185612171565b935083602082028501611cd985612129565b8060005b85811015611d155784840389528151611cf68582611c71565b9450611d0183612164565b925060208a01995050600181019050611cdd565b50829750879550505050505092915050565b611d308161225d565b82525050565b611d3f8161225d565b82525050565b6000611d518385612193565b9350611d5e838584612293565b611d67836123ae565b840190509392505050565b6000611d7e83856121a4565b9350611d8b838584612293565b82840190509392505050565b6000611da282612159565b611dac8185612182565b9350611dbc8185602086016122a2565b611dc5816123ae565b840191505092915050565b60008154611ddd816122d5565b611de781866121a4565b94506001821660008114611e025760018114611e1357611e46565b60ff19831686528186019350611e46565b611e1c85612139565b60005b83811015611e3e57815481890152600182019150602081019050611e1f565b838801955050505b50505092915050565b6000611e5c603183612193565b9150611e67826123bf565b604082019050919050565b6000611e7f601583612193565b9150611e8a8261240e565b602082019050919050565b6000611ea2602383612193565b9150611ead82612437565b604082019050919050565b6000611ec5601f83612193565b9150611ed082612486565b602082019050919050565b600061010083016000830151611ef46000860182611f8b565b506020830151611f076020860182611c94565b506040830151611f1a6040860182611f8b565b506060830151611f2d6060860182611c85565b506080830151611f406080860182611c85565b5060a083015184820360a0860152611f588282611d97565b91505060c0830151611f6d60c0860182611f8b565b5060e0830151611f8060e0860182611d27565b508091505092915050565b611f9481612289565b82525050565b611fa381612289565b82525050565b6000611fb6828486611d72565b91508190509392505050565b6000611fce8284611dd0565b915081905092915050565b600060a082019050611fee6000830189611ca3565b611ffb6020830188611ca3565b818103604083015261200e818688611d45565b905061201d6060830185611f9a565b61202a6080830184611d36565b979650505050505050565b600060608201905061204a6000830186611ca3565b6120576020830185611ca3565b6120646040830184611f9a565b949350505050565b600060208201905081810360008301526120868184611cb2565b905092915050565b600060208201905081810360008301526120a781611e4f565b9050919050565b600060208201905081810360008301526120c781611e72565b9050919050565b600060208201905081810360008301526120e781611e95565b9050919050565b6000602082019050818103600083015261210781611eb8565b9050919050565b60006020820190506121236000830184611f9a565b92915050565b6000819050602082019050919050565b60008190508160005260206000209050919050565b600081519050919050565b600081519050919050565b6000602082019050919050565b600082825260208201905092915050565b600082825260208201905092915050565b600082825260208201905092915050565b600081905092915050565b60006121ba82612289565b91506121c583612289565b9250827fffffffffffffffffffffffffffffffffffffffffffffffffffffffffffffffff038211156121fa576121f9612350565b5b828201905092915050565b600061221082612289565b915061221b83612289565b92508282101561222e5761222d612350565b5b828203905092915050565b600061224482612269565b9050919050565b600061225682612269565b9050919050565b60008115159050919050565b600073ffffffffffffffffffffffffffffffffffffffff82169050919050565b6000819050919050565b82818337600083830152505050565b60005b838110156122c05780820151818401526020810190506122a5565b838111156122cf576000848401525b50505050565b600060028204905060018216806122ed57607f821691505b602082108114156123015761230061237f565b5b50919050565b600061231282612289565b91507fffffffffffffffffffffffffffffffffffffffffffffffffffffffffffffffff82141561234557612344612350565b5b600182019050919050565b7f4e487b7100000000000000000000000000000000000000000000000000000000600052601160045260246000fd5b7f4e487b7100000000000000000000000000000000000000000000000000000000600052602260045260246000fd5b6000601f19601f8301169050919050565b7f506c65617365206d616b652074686520707269636520746f2062652073616d6560008201527f206173206c697374696e67207072696365000000000000000000000000000000602082015250565b7f4e6f206974656d20666f72206672656520686572650000000000000000000000600082015250565b7f5072696365206d7573742062652073616d65206173206c697374696e6720707260008201527f6963650000000000000000000000000000000000000000000000000000000000602082015250565b7f5265656e7472616e637947756172643a207265656e7472616e742063616c6c00600082015250565b6124b881612239565b81146124c357600080fd5b50565b6124cf81612289565b81146124da57600080fd5b5056fea26469706673582212200c443b4a6a746b5ec19ba254eedeca00646748c46354d1a61de486b8bcc2442564736f6c63430008040033",
    "linkReferences": {},
    "deployedLinkReferences": {}
}